{
  "contractName": "ERC721Ennumerable",
  "abi": [
    {
      "anonymous": false,
      "inputs": [
        {
          "indexed": true,
          "internalType": "address",
          "name": "onwer",
          "type": "address"
        },
        {
          "indexed": true,
          "internalType": "address",
          "name": "approvedAddress",
          "type": "address"
        },
        {
          "indexed": false,
          "internalType": "uint256",
          "name": "tokenId",
          "type": "uint256"
        }
      ],
      "name": "approval",
      "type": "event"
    },
    {
      "anonymous": false,
      "inputs": [
        {
          "indexed": true,
          "internalType": "address",
          "name": "from",
          "type": "address"
        },
        {
          "indexed": true,
          "internalType": "address",
          "name": "to",
          "type": "address"
        },
        {
          "indexed": true,
          "internalType": "uint256",
          "name": "tokenId",
          "type": "uint256"
        }
      ],
      "name": "transfer",
      "type": "event"
    },
    {
      "inputs": [
        {
          "internalType": "uint256",
          "name": "",
          "type": "uint256"
        }
      ],
      "name": "_allTokens",
      "outputs": [
        {
          "internalType": "uint256",
          "name": "",
          "type": "uint256"
        }
      ],
      "stateMutability": "view",
      "type": "function"
    },
    {
      "inputs": [
        {
          "internalType": "address",
          "name": "",
          "type": "address"
        }
      ],
      "name": "_onwedTokensCount",
      "outputs": [
        {
          "internalType": "uint256",
          "name": "",
          "type": "uint256"
        }
      ],
      "stateMutability": "view",
      "type": "function"
    },
    {
      "inputs": [
        {
          "internalType": "address",
          "name": "to",
          "type": "address"
        },
        {
          "internalType": "uint256",
          "name": "tokenId",
          "type": "uint256"
        }
      ],
      "name": "approve",
      "outputs": [],
      "stateMutability": "nonpayable",
      "type": "function"
    },
    {
      "inputs": [
        {
          "internalType": "address",
          "name": "to",
          "type": "address"
        }
      ],
      "name": "balanceOf",
      "outputs": [
        {
          "internalType": "uint256",
          "name": "",
          "type": "uint256"
        }
      ],
      "stateMutability": "view",
      "type": "function"
    },
    {
      "inputs": [
        {
          "internalType": "uint256",
          "name": "tokenId",
          "type": "uint256"
        }
      ],
      "name": "onwerOf",
      "outputs": [
        {
          "internalType": "address",
          "name": "",
          "type": "address"
        }
      ],
      "stateMutability": "view",
      "type": "function"
    },
    {
      "inputs": [
        {
          "internalType": "address",
          "name": "from",
          "type": "address"
        },
        {
          "internalType": "address",
          "name": "to",
          "type": "address"
        },
        {
          "internalType": "uint256",
          "name": "tokenId",
          "type": "uint256"
        }
      ],
      "name": "send",
      "outputs": [],
      "stateMutability": "nonpayable",
      "type": "function"
    },
    {
      "inputs": [
        {
          "internalType": "uint256",
          "name": "tokenId",
          "type": "uint256"
        }
      ],
      "name": "tokenByIndex",
      "outputs": [
        {
          "internalType": "uint256",
          "name": "",
          "type": "uint256"
        }
      ],
      "stateMutability": "view",
      "type": "function"
    },
    {
      "inputs": [],
      "name": "totalSupply",
      "outputs": [
        {
          "internalType": "uint256",
          "name": "",
          "type": "uint256"
        }
      ],
      "stateMutability": "view",
      "type": "function"
    },
    {
      "inputs": [
        {
          "internalType": "address",
          "name": "to",
          "type": "address"
        },
        {
          "internalType": "uint256",
          "name": "tokenId",
          "type": "uint256"
        }
      ],
      "name": "tokenByOnwerEnumeration",
      "outputs": [
        {
          "internalType": "uint256",
          "name": "",
          "type": "uint256"
        }
      ],
      "stateMutability": "view",
      "type": "function"
    }
  ],
  "bytecode": "0x608060405234801561001057600080fd5b50610c71806100206000396000f3fe608060405234801561001057600080fd5b50600436106100935760003560e01c80634f6ccce7116100665780634f6ccce71461011e57806370a082311461014e578063825d45091461017e578063aa5965ae146101ae578063f9297d94146101de57610093565b80630779afe614610098578063095ea7b3146100b457806318160ddd146100d0578063373bc25e146100ee575b600080fd5b6100b260048036038101906100ad919061096f565b61020e565b005b6100ce60048036038101906100c991906109c2565b610231565b005b6100d861035c565b6040516100e59190610a11565b60405180910390f35b610108600480360381019061010391906109c2565b610369565b6040516101159190610a11565b60405180910390f35b61013860048036038101906101339190610a2c565b61040f565b6040516101459190610a11565b60405180910390f35b61016860048036038101906101639190610a59565b61044a565b6040516101759190610a11565b60405180910390f35b61019860048036038101906101939190610a59565b6104ca565b6040516101a59190610a11565b60405180910390f35b6101c860048036038101906101c39190610a2c565b6104e2565b6040516101d59190610a11565b60405180910390f35b6101f860048036038101906101f39190610a2c565b610506565b6040516102059190610a95565b60405180910390f35b61021833826105b7565b61022157600080fd5b61022c838383610635565b505050565b600073ffffffffffffffffffffffffffffffffffffffff168273ffffffffffffffffffffffffffffffffffffffff160361026a57600080fd5b3373ffffffffffffffffffffffffffffffffffffffff1661028a82610506565b73ffffffffffffffffffffffffffffffffffffffff16146102aa57600080fd5b816002600083815260200190815260200160002060006101000a81548173ffffffffffffffffffffffffffffffffffffffff021916908373ffffffffffffffffffffffffffffffffffffffff160217905550808273ffffffffffffffffffffffffffffffffffffffff16600073ffffffffffffffffffffffffffffffffffffffff167fbeabacc8ffedac16e9a60acdb2ca743d80c2ebb44977a93fa8e483c74d2b35a860405160405180910390a45050565b6000600680549050905090565b60008273ffffffffffffffffffffffffffffffffffffffff1661038b83610506565b73ffffffffffffffffffffffffffffffffffffffff16146103ab57600080fd5b600460008473ffffffffffffffffffffffffffffffffffffffff1673ffffffffffffffffffffffffffffffffffffffff16815260200190815260200160002082815481106103fc576103fb610ab0565b5b9060005260206000200154905092915050565b600061041961035c565b821061042457600080fd5b6006828154811061043857610437610ab0565b5b90600052602060002001549050919050565b60008073ffffffffffffffffffffffffffffffffffffffff168273ffffffffffffffffffffffffffffffffffffffff160361048457600080fd5b6000808373ffffffffffffffffffffffffffffffffffffffff1673ffffffffffffffffffffffffffffffffffffffff168152602001908152602001600020549050919050565b60006020528060005260406000206000915090505481565b600681815481106104f257600080fd5b906000526020600020016000915090505481565b6000806001600084815260200190815260200160002060009054906101000a900473ffffffffffffffffffffffffffffffffffffffff169050600073ffffffffffffffffffffffffffffffffffffffff168173ffffffffffffffffffffffffffffffffffffffff16036105ae576040517f08c379a00000000000000000000000000000000000000000000000000000000081526004016105a590610b62565b60405180910390fd5b80915050919050565b6000806105c383610506565b90503373ffffffffffffffffffffffffffffffffffffffff168173ffffffffffffffffffffffffffffffffffffffff16146105fd57600080fd5b8373ffffffffffffffffffffffffffffffffffffffff168173ffffffffffffffffffffffffffffffffffffffff161491505092915050565b8273ffffffffffffffffffffffffffffffffffffffff1661065582610506565b73ffffffffffffffffffffffffffffffffffffffff161461067557600080fd5b8173ffffffffffffffffffffffffffffffffffffffff1661069582610506565b73ffffffffffffffffffffffffffffffffffffffff16036106b557600080fd5b3373ffffffffffffffffffffffffffffffffffffffff168373ffffffffffffffffffffffffffffffffffffffff16146106ed57600080fd5b600073ffffffffffffffffffffffffffffffffffffffff168273ffffffffffffffffffffffffffffffffffffffff160361072657600080fd5b60016000808473ffffffffffffffffffffffffffffffffffffffff1673ffffffffffffffffffffffffffffffffffffffff16815260200190815260200160002060008282546107759190610bb1565b9250508190555060016000808573ffffffffffffffffffffffffffffffffffffffff1673ffffffffffffffffffffffffffffffffffffffff16815260200190815260200160002060008282546107cb9190610c07565b92505081905550816001600083815260200190815260200160002060006101000a81548173ffffffffffffffffffffffffffffffffffffffff021916908373ffffffffffffffffffffffffffffffffffffffff160217905550816002600083815260200190815260200160002060006101000a81548173ffffffffffffffffffffffffffffffffffffffff021916908373ffffffffffffffffffffffffffffffffffffffff160217905550808273ffffffffffffffffffffffffffffffffffffffff168473ffffffffffffffffffffffffffffffffffffffff167fbeabacc8ffedac16e9a60acdb2ca743d80c2ebb44977a93fa8e483c74d2b35a860405160405180910390a4505050565b600080fd5b600073ffffffffffffffffffffffffffffffffffffffff82169050919050565b6000610906826108db565b9050919050565b610916816108fb565b811461092157600080fd5b50565b6000813590506109338161090d565b92915050565b6000819050919050565b61094c81610939565b811461095757600080fd5b50565b60008135905061096981610943565b92915050565b600080600060608486031215610988576109876108d6565b5b600061099686828701610924565b93505060206109a786828701610924565b92505060406109b88682870161095a565b9150509250925092565b600080604083850312156109d9576109d86108d6565b5b60006109e785828601610924565b92505060206109f88582860161095a565b9150509250929050565b610a0b81610939565b82525050565b6000602082019050610a266000830184610a02565b92915050565b600060208284031215610a4257610a416108d6565b5b6000610a508482850161095a565b91505092915050565b600060208284031215610a6f57610a6e6108d6565b5b6000610a7d84828501610924565b91505092915050565b610a8f816108fb565b82525050565b6000602082019050610aaa6000830184610a86565b92915050565b7f4e487b7100000000000000000000000000000000000000000000000000000000600052603260045260246000fd5b600082825260208201905092915050565b7f6f776e657220717565727920666f72206e6f6e2d6578697374656e7420746f6b60008201527f656e000000000000000000000000000000000000000000000000000000000000602082015250565b6000610b4c602283610adf565b9150610b5782610af0565b604082019050919050565b60006020820190508181036000830152610b7b81610b3f565b9050919050565b7f4e487b7100000000000000000000000000000000000000000000000000000000600052601160045260246000fd5b6000610bbc82610939565b9150610bc783610939565b9250827fffffffffffffffffffffffffffffffffffffffffffffffffffffffffffffffff03821115610bfc57610bfb610b82565b5b828201905092915050565b6000610c1282610939565b9150610c1d83610939565b925082821015610c3057610c2f610b82565b5b82820390509291505056fea26469706673582212201f13306b204f8df1bf1769d0bbfd9726b7bbbef00513a93abc5cad454ee6f80f64736f6c634300080d0033",
  "immutableReferences": {},
  "source": "// SPDX-License-Identifier: MIT\r\npragma solidity ^0.8.0;\r\n\r\nimport \"./ERC721.sol\";\r\n\r\ncontract ERC721Ennumerable is ERC721{\r\n\r\n    mapping(uint256 =>uint256) private _allTokensIndex; // tokenId to position\r\n    mapping(address=>uint256[]) private _onwedTokens; //owner to the all tokens([])\r\n    mapping(uint256=>uint256) private _onwedTokensIndex; // tokenId to index the onwer (token) list !\r\n\r\n    uint256 [] public _allTokens;\r\n\r\n    function _mint(address to,uint256 tokenId)internal override(ERC721){\r\n        super._mint(to,tokenId);\r\n        addTokenToOnwerEnumeration(tokenId);\r\n        addTokenToOnwerEnumeration(to, tokenId);\r\n    }\r\n\r\n    function addTokenToOnwerEnumeration(uint256 tokenId) internal{\r\n        _allTokensIndex[tokenId] = _allTokens.length;\r\n        _allTokens.push(tokenId); \r\n    }\r\n\r\n    function addTokenToOnwerEnumeration(address to,uint256 tokenId) internal {\r\n        _onwedTokensIndex[tokenId] = _onwedTokens[to].length;\r\n        _onwedTokens[to].push(tokenId);\r\n    }\r\n\r\n    function tokenByIndex(uint256 tokenId) public view returns(uint256){\r\n        require(tokenId < totalSupply());\r\n        return _allTokens[tokenId];\r\n    }\r\n\r\n    function totalSupply() public view returns(uint256){\r\n        return _allTokens.length;\r\n    }\r\n\r\n   function tokenByOnwerEnumeration(address to,uint256 tokenId) public view returns(uint256){\r\n       require(onwerOf(tokenId) == to);\r\n       return  _onwedTokens[to][tokenId];\r\n   }\r\n\r\n\r\n\r\n\r\n\r\n\r\n\r\n\r\n\r\n\r\n\r\n\r\n\r\n\r\n/*\r\n\r\n\r\n// a function that help us to get the token from the _allTokens array\r\n    function tokenByIndex(uint256 _index) external view returns (uint256){\r\n        require(_index < totalSupply());\r\n        return _allTokens[_index];\r\n    }\r\n\r\n\r\n// a function that returns token onwer index\r\n    function tokenOfOwnerByIndex(address _owner, uint256 _index) external view returns (uint256){\r\n        require(_index < balanceOf(_owner));\r\n        require(_owner != address(0));\r\n            return _onwedTokens[_owner][_index] ;\r\n\r\n    }\r\n\r\n    function _mint(address to ,uint256 _tokenId) internal override(ERC721){\r\n         super._mint(to,_tokenId); \r\n\r\n         //1 add token to the onwer\r\n\r\n         //2 add tokens to all tokens (totakSupply)\r\n         addTokensToTokenEnumeration(_tokenId);\r\n         addTokenToOnwerEnumeration(_tokenId,to);\r\n    }\r\n\r\n\r\n// add tokens to the _alltokens array and set the positions of the tokens indexes\r\n    function addTokensToTokenEnumeration(uint256 tokenId) private {\r\n        _allTokensIndex[tokenId] = _allTokens.length;\r\n        _allTokens.push(tokenId);\r\n    }\r\n\r\n//return the total Supply of the all token array\r\n    function totalSupply() public view returns (uint256){\r\n        return _allTokens.length;\r\n    }\r\n\r\n    function addTokenToOnwerEnumeration(uint256 tokenID,address to) private{\r\n    //add address and token id to the _onwedTokens;\r\n    _onwedTokens[to].push(tokenID);\r\n    //2. _onwedTokensIndex tokenId set to address of onwedTokens position\r\n    _onwedTokensIndex[tokenID] = _onwedTokens[to].length; // .length is for the position\r\n    // we want to execute the function with mintting\r\n}\r\n\r\n\r\n\r\n\r\n*/\r\n\r\n\r\n\r\n\r\n\r\n\r\n\r\n\r\n\r\n\r\n\r\n\r\n\r\n   \r\n\r\n    \r\n\r\n\r\n   \r\n\r\n\r\n\r\n\r\n\r\n}",
  "sourcePath": "C:\\Users\\suvodeep\\nft\\src\\contracts\\ERC721Ennumerable.sol",
  "compiler": {
    "name": "solc",
    "version": "0.8.13+commit.abaa5c0e.Emscripten.clang"
  },
  "schemaVersion": "3.4.4",
  "updatedAt": "2022-03-19T17:19:27.215Z",
  "devdoc": {
    "kind": "dev",
    "methods": {},
    "version": 1
  },
  "userdoc": {
    "kind": "user",
    "methods": {},
    "version": 1
  }
}