{
  "contractName": "ERC721",
  "abi": [
    {
      "anonymous": false,
      "inputs": [
        {
          "indexed": true,
          "internalType": "address",
          "name": "onwer",
          "type": "address"
        },
        {
          "indexed": true,
          "internalType": "address",
          "name": "approvedAddress",
          "type": "address"
        },
        {
          "indexed": false,
          "internalType": "uint256",
          "name": "tokenId",
          "type": "uint256"
        }
      ],
      "name": "approval",
      "type": "event"
    },
    {
      "anonymous": false,
      "inputs": [
        {
          "indexed": true,
          "internalType": "address",
          "name": "from",
          "type": "address"
        },
        {
          "indexed": true,
          "internalType": "address",
          "name": "to",
          "type": "address"
        },
        {
          "indexed": true,
          "internalType": "uint256",
          "name": "tokenId",
          "type": "uint256"
        }
      ],
      "name": "transfer",
      "type": "event"
    },
    {
      "inputs": [
        {
          "internalType": "address",
          "name": "",
          "type": "address"
        }
      ],
      "name": "_onwedTokensCount",
      "outputs": [
        {
          "internalType": "uint256",
          "name": "",
          "type": "uint256"
        }
      ],
      "stateMutability": "view",
      "type": "function"
    },
    {
      "inputs": [
        {
          "internalType": "address",
          "name": "to",
          "type": "address"
        }
      ],
      "name": "balanceOf",
      "outputs": [
        {
          "internalType": "uint256",
          "name": "",
          "type": "uint256"
        }
      ],
      "stateMutability": "view",
      "type": "function"
    },
    {
      "inputs": [
        {
          "internalType": "uint256",
          "name": "tokenId",
          "type": "uint256"
        }
      ],
      "name": "onwerOf",
      "outputs": [
        {
          "internalType": "address",
          "name": "",
          "type": "address"
        }
      ],
      "stateMutability": "view",
      "type": "function"
    },
    {
      "inputs": [
        {
          "internalType": "address",
          "name": "from",
          "type": "address"
        },
        {
          "internalType": "address",
          "name": "to",
          "type": "address"
        },
        {
          "internalType": "uint256",
          "name": "tokenId",
          "type": "uint256"
        }
      ],
      "name": "send",
      "outputs": [],
      "stateMutability": "nonpayable",
      "type": "function"
    },
    {
      "inputs": [
        {
          "internalType": "address",
          "name": "to",
          "type": "address"
        },
        {
          "internalType": "uint256",
          "name": "tokenId",
          "type": "uint256"
        }
      ],
      "name": "approve",
      "outputs": [],
      "stateMutability": "nonpayable",
      "type": "function"
    }
  ],
  "bytecode": "0x608060405234801561001057600080fd5b50610a46806100206000396000f3fe608060405234801561001057600080fd5b50600436106100575760003560e01c80630779afe61461005c578063095ea7b31461007857806370a0823114610094578063825d4509146100c4578063f9297d94146100f4575b600080fd5b61007660048036038101906100719190610773565b610124565b005b610092600480360381019061008d91906107c6565b610147565b005b6100ae60048036038101906100a99190610806565b610272565b6040516100bb9190610842565b60405180910390f35b6100de60048036038101906100d99190610806565b6102f2565b6040516100eb9190610842565b60405180910390f35b61010e6004803603810190610109919061085d565b61030a565b60405161011b9190610899565b60405180910390f35b61012e33826103bb565b61013757600080fd5b610142838383610439565b505050565b600073ffffffffffffffffffffffffffffffffffffffff168273ffffffffffffffffffffffffffffffffffffffff160361018057600080fd5b3373ffffffffffffffffffffffffffffffffffffffff166101a08261030a565b73ffffffffffffffffffffffffffffffffffffffff16146101c057600080fd5b816002600083815260200190815260200160002060006101000a81548173ffffffffffffffffffffffffffffffffffffffff021916908373ffffffffffffffffffffffffffffffffffffffff160217905550808273ffffffffffffffffffffffffffffffffffffffff16600073ffffffffffffffffffffffffffffffffffffffff167fbeabacc8ffedac16e9a60acdb2ca743d80c2ebb44977a93fa8e483c74d2b35a860405160405180910390a45050565b60008073ffffffffffffffffffffffffffffffffffffffff168273ffffffffffffffffffffffffffffffffffffffff16036102ac57600080fd5b6000808373ffffffffffffffffffffffffffffffffffffffff1673ffffffffffffffffffffffffffffffffffffffff168152602001908152602001600020549050919050565b60006020528060005260406000206000915090505481565b6000806001600084815260200190815260200160002060009054906101000a900473ffffffffffffffffffffffffffffffffffffffff169050600073ffffffffffffffffffffffffffffffffffffffff168173ffffffffffffffffffffffffffffffffffffffff16036103b2576040517f08c379a00000000000000000000000000000000000000000000000000000000081526004016103a990610937565b60405180910390fd5b80915050919050565b6000806103c78361030a565b90503373ffffffffffffffffffffffffffffffffffffffff168173ffffffffffffffffffffffffffffffffffffffff161461040157600080fd5b8373ffffffffffffffffffffffffffffffffffffffff168173ffffffffffffffffffffffffffffffffffffffff161491505092915050565b8273ffffffffffffffffffffffffffffffffffffffff166104598261030a565b73ffffffffffffffffffffffffffffffffffffffff161461047957600080fd5b8173ffffffffffffffffffffffffffffffffffffffff166104998261030a565b73ffffffffffffffffffffffffffffffffffffffff16036104b957600080fd5b3373ffffffffffffffffffffffffffffffffffffffff168373ffffffffffffffffffffffffffffffffffffffff16146104f157600080fd5b600073ffffffffffffffffffffffffffffffffffffffff168273ffffffffffffffffffffffffffffffffffffffff160361052a57600080fd5b60016000808473ffffffffffffffffffffffffffffffffffffffff1673ffffffffffffffffffffffffffffffffffffffff16815260200190815260200160002060008282546105799190610986565b9250508190555060016000808573ffffffffffffffffffffffffffffffffffffffff1673ffffffffffffffffffffffffffffffffffffffff16815260200190815260200160002060008282546105cf91906109dc565b92505081905550816001600083815260200190815260200160002060006101000a81548173ffffffffffffffffffffffffffffffffffffffff021916908373ffffffffffffffffffffffffffffffffffffffff160217905550816002600083815260200190815260200160002060006101000a81548173ffffffffffffffffffffffffffffffffffffffff021916908373ffffffffffffffffffffffffffffffffffffffff160217905550808273ffffffffffffffffffffffffffffffffffffffff168473ffffffffffffffffffffffffffffffffffffffff167fbeabacc8ffedac16e9a60acdb2ca743d80c2ebb44977a93fa8e483c74d2b35a860405160405180910390a4505050565b600080fd5b600073ffffffffffffffffffffffffffffffffffffffff82169050919050565b600061070a826106df565b9050919050565b61071a816106ff565b811461072557600080fd5b50565b60008135905061073781610711565b92915050565b6000819050919050565b6107508161073d565b811461075b57600080fd5b50565b60008135905061076d81610747565b92915050565b60008060006060848603121561078c5761078b6106da565b5b600061079a86828701610728565b93505060206107ab86828701610728565b92505060406107bc8682870161075e565b9150509250925092565b600080604083850312156107dd576107dc6106da565b5b60006107eb85828601610728565b92505060206107fc8582860161075e565b9150509250929050565b60006020828403121561081c5761081b6106da565b5b600061082a84828501610728565b91505092915050565b61083c8161073d565b82525050565b60006020820190506108576000830184610833565b92915050565b600060208284031215610873576108726106da565b5b60006108818482850161075e565b91505092915050565b610893816106ff565b82525050565b60006020820190506108ae600083018461088a565b92915050565b600082825260208201905092915050565b7f6f776e657220717565727920666f72206e6f6e2d6578697374656e7420746f6b60008201527f656e000000000000000000000000000000000000000000000000000000000000602082015250565b60006109216022836108b4565b915061092c826108c5565b604082019050919050565b6000602082019050818103600083015261095081610914565b9050919050565b7f4e487b7100000000000000000000000000000000000000000000000000000000600052601160045260246000fd5b60006109918261073d565b915061099c8361073d565b9250827fffffffffffffffffffffffffffffffffffffffffffffffffffffffffffffffff038211156109d1576109d0610957565b5b828201905092915050565b60006109e78261073d565b91506109f28361073d565b925082821015610a0557610a04610957565b5b82820390509291505056fea264697066735822122021c0dc9c10e771f2dbaf8c0b6e293494784c6e4160545263a913cb0f60918ea264736f6c634300080d0033",
  "immutableReferences": {},
  "source": "// SPDX-License-Identifier: MIT\r\npragma solidity ^0.8.0;\r\n\r\n/*\r\nBuilding the mintiong functions\r\n\r\n1. nft to point to an address\r\n2. keep track of token ids\r\n3. keep track of token onwer address to toekn ids\r\n4. keep track of how many  tokens an onwer address has \r\n5. create an event that emits a \r\ntransfer logs - contract address.where it is being minted to,the id \r\n\r\n*/\r\n\r\n// import \"./ERC721Ennumerable.sol\";\r\n\r\n\r\ncontract ERC721 {\r\n    \r\n\r\n    //mapping from address to tokenids\r\n    mapping(address => uint256) public _onwedTokensCount;\r\n\r\n    //mapping from id to onwer \r\n    mapping(uint256 => address) private _tokenOnwer;\r\n\r\n    //mapping from token to address\r\n    mapping(uint256 =>address) private _tokenApprovals;\r\n\r\n    event transfer(address indexed from ,address indexed to ,uint256 indexed tokenId);\r\n\r\n    event approval(address indexed onwer,address indexed approvedAddress ,uint256 tokenId);\r\n\r\n    function _isExists(uint256 tokenId) internal view returns(bool){\r\n        address onwer = _tokenOnwer[tokenId];\r\n        return onwer != address(0);\r\n    }\r\n\r\n    function _mint(address to,uint256 tokenId) internal virtual{\r\n        require(!_isExists(tokenId));\r\n        require(to != address(0));\r\n        _onwedTokensCount[to] += 1;\r\n        _tokenOnwer[tokenId] = to;\r\n        // addTokenToOnwerEnumeration(msg.sender,tokenId);\r\n        emit transfer(address(0), to, tokenId);\r\n    }\r\n    function balanceOf(address to) public view returns(uint256){\r\n        require(to != address(0));\r\n        return _onwedTokensCount[to];\r\n    }\r\n    function onwerOf(uint256 tokenId) public view returns(address){\r\n        address onwer = _tokenOnwer[tokenId];\r\n        require(onwer != address(0), 'owner query for non-existent token');\r\n        return onwer;\r\n    }\r\n\r\n    function _send(address from,address to,uint256 tokenId) internal {\r\n        require(onwerOf(tokenId) == from);\r\n        require(onwerOf(tokenId) != to);\r\n        require(from == msg.sender);\r\n        require(to != address(0));\r\n        _onwedTokensCount[to] += 1;\r\n        _onwedTokensCount[from] -= 1;\r\n        _tokenOnwer[tokenId] = to;\r\n    \r\n        _tokenApprovals[tokenId] = to;\r\n        emit transfer(from, to, tokenId);\r\n    }\r\n\r\n    function send(address from,address to,uint256 tokenId) public {\r\n        require(isOnwer(msg.sender,tokenId));\r\n        _send(from, to, tokenId);\r\n    }\r\n\r\n/*\r\n    //mapping from address to tokenids\r\n    mapping(address => uint256) public _onwedTokensCount;\r\n\r\n    //mapping from id to onwer \r\n    mapping(uint256 => address) private _tokenOnwer;\r\n\r\n    //mapping from token to address\r\n    mapping(uint256 =>address) private _tokenApprovals;\r\n\r\n    event transfer(address indexed from ,address indexed to ,uint256 indexed tokenId);\r\n\r\n    event approval(address indexed onwer,address indexed approvedAddress ,uint256 tokenId);\r\n    */\r\n\r\n    function isOnwer(address spender,uint256 tokenId) internal view returns(bool){\r\n        address onwer = onwerOf(tokenId);\r\n        require(onwer == msg.sender);\r\n        return (onwer == spender);\r\n    }\r\n\r\n\r\n\r\n    function approve(address to,uint256 tokenId) public{\r\n        require(to != address(0));\r\n        require(onwerOf(tokenId) == msg.sender);\r\n        _tokenApprovals[tokenId] = to;\r\n        emit transfer(address(0), to, tokenId);\r\n    }\r\n\r\n    \r\n\r\n\r\n\r\n\r\n\r\n\r\n\r\n\r\n\r\n\r\n\r\n\r\n\r\n\r\n\r\n\r\n\r\n\r\n\r\n\r\n\r\n\r\n\r\n\r\n\r\n/*\r\n\r\n    function exists(uint256 tokenId) internal view returns(bool){\r\n        //setting the address of nft onwer to check the mapping \r\n        //of the address from tokenOnwer at the tokenId\r\n        address onwer = _tokenOnwer[tokenId];\r\n        //return truthiness that the address is not zero\r\n        return onwer != address(0);\r\n    }\r\n\r\n\r\n    function _mint(address to ,uint256 _tokenId) internal  {\r\n        require(to != address(0),\"ERC721: minting to the zero address\");\r\n        require(!exists(_tokenId));\r\n        _tokenOnwer[_tokenId] = to;\r\n        _onwedTokensCount[to] +=1;\r\n        emit tranferlogs(address(0), to, _tokenId);\r\n    }\r\n\r\n    function balanceof(address _of) public view returns(uint256){\r\n        require(_of != address(0));\r\n        return _onwedTokensCount[_of];\r\n    }\r\n\r\n    function onwerOf(uint256 tokenId) public view returns(address){\r\n        address onwer = _tokenOnwer[tokenId];\r\n        require(onwer != address(0));\r\n        return onwer;\r\n    }\r\n\r\n    function approve(address to,uint256 tokenId) public {\r\n        address onwer = onwerOf(tokenId);\r\n        require(msg.sender == onwer);\r\n        require(to != onwer,\"Self transfer id not possible\");\r\n        _tokenApprovals[tokenId]  = to;\r\n\r\n        emit approval(onwer, to, tokenId);\r\n\r\n    }\r\n\r\n*/\r\n\r\n    \r\n\r\n\r\n\r\n}",
  "sourcePath": "C:\\Users\\suvodeep\\nft\\src\\contracts\\ERC721.sol",
  "compiler": {
    "name": "solc",
    "version": "0.8.13+commit.abaa5c0e.Emscripten.clang"
  },
  "schemaVersion": "3.4.4",
  "updatedAt": "2022-03-19T17:19:27.198Z",
  "devdoc": {
    "kind": "dev",
    "methods": {},
    "version": 1
  },
  "userdoc": {
    "kind": "user",
    "methods": {},
    "version": 1
  }
}