{
  "contractName": "ERC721Connector",
  "abi": [
    {
      "inputs": [
        {
          "internalType": "string",
          "name": "name",
          "type": "string"
        },
        {
          "internalType": "string",
          "name": "symbol",
          "type": "string"
        }
      ],
      "stateMutability": "nonpayable",
      "type": "constructor"
    },
    {
      "anonymous": false,
      "inputs": [
        {
          "indexed": true,
          "internalType": "address",
          "name": "onwer",
          "type": "address"
        },
        {
          "indexed": true,
          "internalType": "address",
          "name": "approvedAddress",
          "type": "address"
        },
        {
          "indexed": false,
          "internalType": "uint256",
          "name": "tokenId",
          "type": "uint256"
        }
      ],
      "name": "approval",
      "type": "event"
    },
    {
      "anonymous": false,
      "inputs": [
        {
          "indexed": true,
          "internalType": "address",
          "name": "from",
          "type": "address"
        },
        {
          "indexed": true,
          "internalType": "address",
          "name": "to",
          "type": "address"
        },
        {
          "indexed": true,
          "internalType": "uint256",
          "name": "tokenId",
          "type": "uint256"
        }
      ],
      "name": "transfer",
      "type": "event"
    },
    {
      "inputs": [
        {
          "internalType": "uint256",
          "name": "",
          "type": "uint256"
        }
      ],
      "name": "_allTokens",
      "outputs": [
        {
          "internalType": "uint256",
          "name": "",
          "type": "uint256"
        }
      ],
      "stateMutability": "view",
      "type": "function"
    },
    {
      "inputs": [
        {
          "internalType": "address",
          "name": "",
          "type": "address"
        }
      ],
      "name": "_onwedTokensCount",
      "outputs": [
        {
          "internalType": "uint256",
          "name": "",
          "type": "uint256"
        }
      ],
      "stateMutability": "view",
      "type": "function"
    },
    {
      "inputs": [
        {
          "internalType": "address",
          "name": "to",
          "type": "address"
        },
        {
          "internalType": "uint256",
          "name": "tokenId",
          "type": "uint256"
        }
      ],
      "name": "approve",
      "outputs": [],
      "stateMutability": "nonpayable",
      "type": "function"
    },
    {
      "inputs": [
        {
          "internalType": "address",
          "name": "to",
          "type": "address"
        }
      ],
      "name": "balanceOf",
      "outputs": [
        {
          "internalType": "uint256",
          "name": "",
          "type": "uint256"
        }
      ],
      "stateMutability": "view",
      "type": "function"
    },
    {
      "inputs": [],
      "name": "name",
      "outputs": [
        {
          "internalType": "string",
          "name": "",
          "type": "string"
        }
      ],
      "stateMutability": "view",
      "type": "function"
    },
    {
      "inputs": [
        {
          "internalType": "uint256",
          "name": "tokenId",
          "type": "uint256"
        }
      ],
      "name": "onwerOf",
      "outputs": [
        {
          "internalType": "address",
          "name": "",
          "type": "address"
        }
      ],
      "stateMutability": "view",
      "type": "function"
    },
    {
      "inputs": [
        {
          "internalType": "address",
          "name": "from",
          "type": "address"
        },
        {
          "internalType": "address",
          "name": "to",
          "type": "address"
        },
        {
          "internalType": "uint256",
          "name": "tokenId",
          "type": "uint256"
        }
      ],
      "name": "send",
      "outputs": [],
      "stateMutability": "nonpayable",
      "type": "function"
    },
    {
      "inputs": [],
      "name": "symbol",
      "outputs": [
        {
          "internalType": "string",
          "name": "",
          "type": "string"
        }
      ],
      "stateMutability": "view",
      "type": "function"
    },
    {
      "inputs": [
        {
          "internalType": "uint256",
          "name": "tokenId",
          "type": "uint256"
        }
      ],
      "name": "tokenByIndex",
      "outputs": [
        {
          "internalType": "uint256",
          "name": "",
          "type": "uint256"
        }
      ],
      "stateMutability": "view",
      "type": "function"
    },
    {
      "inputs": [
        {
          "internalType": "address",
          "name": "to",
          "type": "address"
        },
        {
          "internalType": "uint256",
          "name": "tokenId",
          "type": "uint256"
        }
      ],
      "name": "tokenByOnwerEnumeration",
      "outputs": [
        {
          "internalType": "uint256",
          "name": "",
          "type": "uint256"
        }
      ],
      "stateMutability": "view",
      "type": "function"
    },
    {
      "inputs": [],
      "name": "totalSupply",
      "outputs": [
        {
          "internalType": "uint256",
          "name": "",
          "type": "uint256"
        }
      ],
      "stateMutability": "view",
      "type": "function"
    }
  ],
  "bytecode": "0x60806040523480156200001157600080fd5b50604051620012af380380620012af8339818101604052810190620000379190620002c2565b818181600090805190602001906200005192919062000075565b5080600190805190602001906200006a92919062000075565b5050505050620003ab565b828054620000839062000376565b90600052602060002090601f016020900481019282620000a75760008555620000f3565b82601f10620000c257805160ff1916838001178555620000f3565b82800160010185558215620000f3579182015b82811115620000f2578251825591602001919060010190620000d5565b5b50905062000102919062000106565b5090565b5b808211156200012157600081600090555060010162000107565b5090565b6000604051905090565b600080fd5b600080fd5b600080fd5b600080fd5b6000601f19601f8301169050919050565b7f4e487b7100000000000000000000000000000000000000000000000000000000600052604160045260246000fd5b6200018e8262000143565b810181811067ffffffffffffffff82111715620001b057620001af62000154565b5b80604052505050565b6000620001c562000125565b9050620001d3828262000183565b919050565b600067ffffffffffffffff821115620001f657620001f562000154565b5b620002018262000143565b9050602081019050919050565b60005b838110156200022e57808201518184015260208101905062000211565b838111156200023e576000848401525b50505050565b60006200025b6200025584620001d8565b620001b9565b9050828152602081018484840111156200027a57620002796200013e565b5b620002878482856200020e565b509392505050565b600082601f830112620002a757620002a662000139565b5b8151620002b984826020860162000244565b91505092915050565b60008060408385031215620002dc57620002db6200012f565b5b600083015167ffffffffffffffff811115620002fd57620002fc62000134565b5b6200030b858286016200028f565b925050602083015167ffffffffffffffff8111156200032f576200032e62000134565b5b6200033d858286016200028f565b9150509250929050565b7f4e487b7100000000000000000000000000000000000000000000000000000000600052602260045260246000fd5b600060028204905060018216806200038f57607f821691505b602082108103620003a557620003a462000347565b5b50919050565b610ef480620003bb6000396000f3fe608060405234801561001057600080fd5b50600436106100a95760003560e01c80634f6ccce7116100715780634f6ccce71461015257806370a0823114610182578063825d4509146101b257806395d89b41146101e2578063aa5965ae14610200578063f9297d9414610230576100a9565b806306fdde03146100ae5780630779afe6146100cc578063095ea7b3146100e857806318160ddd14610104578063373bc25e14610122575b600080fd5b6100b6610260565b6040516100c39190610ae8565b60405180910390f35b6100e660048036038101906100e19190610ba3565b6102f2565b005b61010260048036038101906100fd9190610bf6565b610315565b005b61010c610440565b6040516101199190610c45565b60405180910390f35b61013c60048036038101906101379190610bf6565b61044d565b6040516101499190610c45565b60405180910390f35b61016c60048036038101906101679190610c60565b6104f3565b6040516101799190610c45565b60405180910390f35b61019c60048036038101906101979190610c8d565b61052e565b6040516101a99190610c45565b60405180910390f35b6101cc60048036038101906101c79190610c8d565b6105af565b6040516101d99190610c45565b60405180910390f35b6101ea6105c7565b6040516101f79190610ae8565b60405180910390f35b61021a60048036038101906102159190610c60565b610659565b6040516102279190610c45565b60405180910390f35b61024a60048036038101906102459190610c60565b61067d565b6040516102579190610cc9565b60405180910390f35b60606000805461026f90610d13565b80601f016020809104026020016040519081016040528092919081815260200182805461029b90610d13565b80156102e85780601f106102bd576101008083540402835291602001916102e8565b820191906000526020600020905b8154815290600101906020018083116102cb57829003601f168201915b5050505050905090565b6102fc338261072e565b61030557600080fd5b6103108383836107ac565b505050565b600073ffffffffffffffffffffffffffffffffffffffff168273ffffffffffffffffffffffffffffffffffffffff160361034e57600080fd5b3373ffffffffffffffffffffffffffffffffffffffff1661036e8261067d565b73ffffffffffffffffffffffffffffffffffffffff161461038e57600080fd5b816004600083815260200190815260200160002060006101000a81548173ffffffffffffffffffffffffffffffffffffffff021916908373ffffffffffffffffffffffffffffffffffffffff160217905550808273ffffffffffffffffffffffffffffffffffffffff16600073ffffffffffffffffffffffffffffffffffffffff167fbeabacc8ffedac16e9a60acdb2ca743d80c2ebb44977a93fa8e483c74d2b35a860405160405180910390a45050565b6000600880549050905090565b60008273ffffffffffffffffffffffffffffffffffffffff1661046f8361067d565b73ffffffffffffffffffffffffffffffffffffffff161461048f57600080fd5b600660008473ffffffffffffffffffffffffffffffffffffffff1673ffffffffffffffffffffffffffffffffffffffff16815260200190815260200160002082815481106104e0576104df610d44565b5b9060005260206000200154905092915050565b60006104fd610440565b821061050857600080fd5b6008828154811061051c5761051b610d44565b5b90600052602060002001549050919050565b60008073ffffffffffffffffffffffffffffffffffffffff168273ffffffffffffffffffffffffffffffffffffffff160361056857600080fd5b600260008373ffffffffffffffffffffffffffffffffffffffff1673ffffffffffffffffffffffffffffffffffffffff168152602001908152602001600020549050919050565b60026020528060005260406000206000915090505481565b6060600180546105d690610d13565b80601f016020809104026020016040519081016040528092919081815260200182805461060290610d13565b801561064f5780601f106106245761010080835404028352916020019161064f565b820191906000526020600020905b81548152906001019060200180831161063257829003601f168201915b5050505050905090565b6008818154811061066957600080fd5b906000526020600020016000915090505481565b6000806003600084815260200190815260200160002060009054906101000a900473ffffffffffffffffffffffffffffffffffffffff169050600073ffffffffffffffffffffffffffffffffffffffff168173ffffffffffffffffffffffffffffffffffffffff1603610725576040517f08c379a000000000000000000000000000000000000000000000000000000000815260040161071c90610de5565b60405180910390fd5b80915050919050565b60008061073a8361067d565b90503373ffffffffffffffffffffffffffffffffffffffff168173ffffffffffffffffffffffffffffffffffffffff161461077457600080fd5b8373ffffffffffffffffffffffffffffffffffffffff168173ffffffffffffffffffffffffffffffffffffffff161491505092915050565b8273ffffffffffffffffffffffffffffffffffffffff166107cc8261067d565b73ffffffffffffffffffffffffffffffffffffffff16146107ec57600080fd5b8173ffffffffffffffffffffffffffffffffffffffff1661080c8261067d565b73ffffffffffffffffffffffffffffffffffffffff160361082c57600080fd5b3373ffffffffffffffffffffffffffffffffffffffff168373ffffffffffffffffffffffffffffffffffffffff161461086457600080fd5b600073ffffffffffffffffffffffffffffffffffffffff168273ffffffffffffffffffffffffffffffffffffffff160361089d57600080fd5b6001600260008473ffffffffffffffffffffffffffffffffffffffff1673ffffffffffffffffffffffffffffffffffffffff16815260200190815260200160002060008282546108ed9190610e34565b925050819055506001600260008573ffffffffffffffffffffffffffffffffffffffff1673ffffffffffffffffffffffffffffffffffffffff16815260200190815260200160002060008282546109449190610e8a565b92505081905550816003600083815260200190815260200160002060006101000a81548173ffffffffffffffffffffffffffffffffffffffff021916908373ffffffffffffffffffffffffffffffffffffffff160217905550816004600083815260200190815260200160002060006101000a81548173ffffffffffffffffffffffffffffffffffffffff021916908373ffffffffffffffffffffffffffffffffffffffff160217905550808273ffffffffffffffffffffffffffffffffffffffff168473ffffffffffffffffffffffffffffffffffffffff167fbeabacc8ffedac16e9a60acdb2ca743d80c2ebb44977a93fa8e483c74d2b35a860405160405180910390a4505050565b600081519050919050565b600082825260208201905092915050565b60005b83811015610a89578082015181840152602081019050610a6e565b83811115610a98576000848401525b50505050565b6000601f19601f8301169050919050565b6000610aba82610a4f565b610ac48185610a5a565b9350610ad4818560208601610a6b565b610add81610a9e565b840191505092915050565b60006020820190508181036000830152610b028184610aaf565b905092915050565b600080fd5b600073ffffffffffffffffffffffffffffffffffffffff82169050919050565b6000610b3a82610b0f565b9050919050565b610b4a81610b2f565b8114610b5557600080fd5b50565b600081359050610b6781610b41565b92915050565b6000819050919050565b610b8081610b6d565b8114610b8b57600080fd5b50565b600081359050610b9d81610b77565b92915050565b600080600060608486031215610bbc57610bbb610b0a565b5b6000610bca86828701610b58565b9350506020610bdb86828701610b58565b9250506040610bec86828701610b8e565b9150509250925092565b60008060408385031215610c0d57610c0c610b0a565b5b6000610c1b85828601610b58565b9250506020610c2c85828601610b8e565b9150509250929050565b610c3f81610b6d565b82525050565b6000602082019050610c5a6000830184610c36565b92915050565b600060208284031215610c7657610c75610b0a565b5b6000610c8484828501610b8e565b91505092915050565b600060208284031215610ca357610ca2610b0a565b5b6000610cb184828501610b58565b91505092915050565b610cc381610b2f565b82525050565b6000602082019050610cde6000830184610cba565b92915050565b7f4e487b7100000000000000000000000000000000000000000000000000000000600052602260045260246000fd5b60006002820490506001821680610d2b57607f821691505b602082108103610d3e57610d3d610ce4565b5b50919050565b7f4e487b7100000000000000000000000000000000000000000000000000000000600052603260045260246000fd5b7f6f776e657220717565727920666f72206e6f6e2d6578697374656e7420746f6b60008201527f656e000000000000000000000000000000000000000000000000000000000000602082015250565b6000610dcf602283610a5a565b9150610dda82610d73565b604082019050919050565b60006020820190508181036000830152610dfe81610dc2565b9050919050565b7f4e487b7100000000000000000000000000000000000000000000000000000000600052601160045260246000fd5b6000610e3f82610b6d565b9150610e4a83610b6d565b9250827fffffffffffffffffffffffffffffffffffffffffffffffffffffffffffffffff03821115610e7f57610e7e610e05565b5b828201905092915050565b6000610e9582610b6d565b9150610ea083610b6d565b925082821015610eb357610eb2610e05565b5b82820390509291505056fea26469706673582212208fadbbaf71f9e8a44e1284e3a95fb6e790fdcd5a3e25eee0cd712b7a8f4fd03364736f6c634300080d0033",
  "immutableReferences": {},
  "source": "// SPDX-License-Identifier: MIT\r\npragma solidity ^0.8.0;\r\n\r\nimport './ERC721Metadate.sol';\r\nimport \"./ERC721Ennumerable.sol\";\r\n\r\ncontract ERC721Connector is ERC721Metadate,ERC721Ennumerable {\r\n\r\n    constructor(string memory name,string memory symbol) ERC721Metadate(name,symbol){\r\n\r\n    }\r\n}",
  "sourcePath": "C:\\Users\\suvodeep\\nft\\src\\contracts\\ERC721Connector.sol",
  "compiler": {
    "name": "solc",
    "version": "0.8.13+commit.abaa5c0e.Emscripten.clang"
  },
  "schemaVersion": "3.4.4",
  "updatedAt": "2022-03-19T17:19:27.208Z",
  "devdoc": {
    "kind": "dev",
    "methods": {},
    "version": 1
  },
  "userdoc": {
    "kind": "user",
    "methods": {},
    "version": 1
  }
}