{
  "contractName": "Kryptobird",
  "abi": [
    {
      "inputs": [],
      "stateMutability": "nonpayable",
      "type": "constructor"
    },
    {
      "anonymous": false,
      "inputs": [
        {
          "indexed": true,
          "internalType": "address",
          "name": "onwer",
          "type": "address"
        },
        {
          "indexed": true,
          "internalType": "address",
          "name": "approvedAddress",
          "type": "address"
        },
        {
          "indexed": false,
          "internalType": "uint256",
          "name": "tokenId",
          "type": "uint256"
        }
      ],
      "name": "approval",
      "type": "event"
    },
    {
      "anonymous": false,
      "inputs": [
        {
          "indexed": true,
          "internalType": "address",
          "name": "from",
          "type": "address"
        },
        {
          "indexed": true,
          "internalType": "address",
          "name": "to",
          "type": "address"
        },
        {
          "indexed": true,
          "internalType": "uint256",
          "name": "tokenId",
          "type": "uint256"
        }
      ],
      "name": "transfer",
      "type": "event"
    },
    {
      "inputs": [
        {
          "internalType": "uint256",
          "name": "",
          "type": "uint256"
        }
      ],
      "name": "_allTokens",
      "outputs": [
        {
          "internalType": "uint256",
          "name": "",
          "type": "uint256"
        }
      ],
      "stateMutability": "view",
      "type": "function",
      "constant": true
    },
    {
      "inputs": [
        {
          "internalType": "address",
          "name": "",
          "type": "address"
        }
      ],
      "name": "_onwedTokensCount",
      "outputs": [
        {
          "internalType": "uint256",
          "name": "",
          "type": "uint256"
        }
      ],
      "stateMutability": "view",
      "type": "function",
      "constant": true
    },
    {
      "inputs": [
        {
          "internalType": "address",
          "name": "to",
          "type": "address"
        },
        {
          "internalType": "uint256",
          "name": "tokenId",
          "type": "uint256"
        }
      ],
      "name": "approve",
      "outputs": [],
      "stateMutability": "nonpayable",
      "type": "function"
    },
    {
      "inputs": [
        {
          "internalType": "address",
          "name": "to",
          "type": "address"
        }
      ],
      "name": "balanceOf",
      "outputs": [
        {
          "internalType": "uint256",
          "name": "",
          "type": "uint256"
        }
      ],
      "stateMutability": "view",
      "type": "function",
      "constant": true
    },
    {
      "inputs": [
        {
          "internalType": "string",
          "name": "",
          "type": "string"
        }
      ],
      "name": "isAdded",
      "outputs": [
        {
          "internalType": "bool",
          "name": "",
          "type": "bool"
        }
      ],
      "stateMutability": "view",
      "type": "function",
      "constant": true
    },
    {
      "inputs": [
        {
          "internalType": "uint256",
          "name": "",
          "type": "uint256"
        }
      ],
      "name": "kryptobirds",
      "outputs": [
        {
          "internalType": "string",
          "name": "",
          "type": "string"
        }
      ],
      "stateMutability": "view",
      "type": "function",
      "constant": true
    },
    {
      "inputs": [],
      "name": "name",
      "outputs": [
        {
          "internalType": "string",
          "name": "",
          "type": "string"
        }
      ],
      "stateMutability": "view",
      "type": "function",
      "constant": true
    },
    {
      "inputs": [
        {
          "internalType": "uint256",
          "name": "tokenId",
          "type": "uint256"
        }
      ],
      "name": "onwerOf",
      "outputs": [
        {
          "internalType": "address",
          "name": "",
          "type": "address"
        }
      ],
      "stateMutability": "view",
      "type": "function",
      "constant": true
    },
    {
      "inputs": [
        {
          "internalType": "address",
          "name": "from",
          "type": "address"
        },
        {
          "internalType": "address",
          "name": "to",
          "type": "address"
        },
        {
          "internalType": "uint256",
          "name": "tokenId",
          "type": "uint256"
        }
      ],
      "name": "send",
      "outputs": [],
      "stateMutability": "nonpayable",
      "type": "function"
    },
    {
      "inputs": [],
      "name": "symbol",
      "outputs": [
        {
          "internalType": "string",
          "name": "",
          "type": "string"
        }
      ],
      "stateMutability": "view",
      "type": "function",
      "constant": true
    },
    {
      "inputs": [
        {
          "internalType": "uint256",
          "name": "tokenId",
          "type": "uint256"
        }
      ],
      "name": "tokenByIndex",
      "outputs": [
        {
          "internalType": "uint256",
          "name": "",
          "type": "uint256"
        }
      ],
      "stateMutability": "view",
      "type": "function",
      "constant": true
    },
    {
      "inputs": [
        {
          "internalType": "address",
          "name": "to",
          "type": "address"
        },
        {
          "internalType": "uint256",
          "name": "tokenId",
          "type": "uint256"
        }
      ],
      "name": "tokenByOnwerEnumeration",
      "outputs": [
        {
          "internalType": "uint256",
          "name": "",
          "type": "uint256"
        }
      ],
      "stateMutability": "view",
      "type": "function",
      "constant": true
    },
    {
      "inputs": [],
      "name": "totalSupply",
      "outputs": [
        {
          "internalType": "uint256",
          "name": "",
          "type": "uint256"
        }
      ],
      "stateMutability": "view",
      "type": "function",
      "constant": true
    },
    {
      "inputs": [
        {
          "internalType": "string",
          "name": "name",
          "type": "string"
        }
      ],
      "name": "mint",
      "outputs": [],
      "stateMutability": "nonpayable",
      "type": "function"
    }
  ],
  "bytecode": "0x60806040523480156200001157600080fd5b506040518060400160405280600a81526020017f4b727970746f62697264000000000000000000000000000000000000000000008152506040518060400160405280600681526020017f4b424952445a00000000000000000000000000000000000000000000000000008152508181816000908051906020019062000098929190620000bc565b508060019080519060200190620000b1929190620000bc565b5050505050620001d0565b828054620000ca906200019b565b90600052602060002090601f016020900481019282620000ee57600085556200013a565b82601f106200010957805160ff19168380011785556200013a565b828001600101855582156200013a579182015b82811115620001395782518255916020019190600101906200011c565b5b5090506200014991906200014d565b5090565b5b80821115620001685760008160009055506001016200014e565b5090565b7f4e487b7100000000000000000000000000000000000000000000000000000000600052602260045260246000fd5b60006002820490506001821680620001b457607f821691505b602082108103620001ca57620001c96200016c565b5b50919050565b61170e80620001e06000396000f3fe608060405234801561001057600080fd5b50600436106100ea5760003560e01c806370a082311161008c578063aa5965ae11610066578063aa5965ae14610271578063cf9ae173146102a1578063d85d3d27146102d1578063f9297d94146102ed576100ea565b806370a08231146101f3578063825d45091461022357806395d89b4114610253576100ea565b806318160ddd116100c857806318160ddd146101455780632e3d616e14610163578063373bc25e146101935780634f6ccce7146101c3576100ea565b806306fdde03146100ef5780630779afe61461010d578063095ea7b314610129575b600080fd5b6100f761031d565b60405161010491906110ec565b60405180910390f35b610127600480360381019061012291906111b6565b6103af565b005b610143600480360381019061013e9190611209565b6103d2565b005b61014d6104fd565b60405161015a9190611258565b60405180910390f35b61017d600480360381019061017891906113a8565b61050a565b60405161018a919061140c565b60405180910390f35b6101ad60048036038101906101a89190611209565b610540565b6040516101ba9190611258565b60405180910390f35b6101dd60048036038101906101d89190611427565b6105e6565b6040516101ea9190611258565b60405180910390f35b61020d60048036038101906102089190611454565b610621565b60405161021a9190611258565b60405180910390f35b61023d60048036038101906102389190611454565b6106a2565b60405161024a9190611258565b60405180910390f35b61025b6106ba565b60405161026891906110ec565b60405180910390f35b61028b60048036038101906102869190611427565b61074c565b6040516102989190611258565b60405180910390f35b6102bb60048036038101906102b69190611427565b610770565b6040516102c891906110ec565b60405180910390f35b6102eb60048036038101906102e691906113a8565b61081c565b005b61030760048036038101906103029190611427565b6108e9565b6040516103149190611490565b60405180910390f35b60606000805461032c906114da565b80601f0160208091040260200160405190810160405280929190818152602001828054610358906114da565b80156103a55780601f1061037a576101008083540402835291602001916103a5565b820191906000526020600020905b81548152906001019060200180831161038857829003601f168201915b5050505050905090565b6103b9338261099a565b6103c257600080fd5b6103cd838383610a18565b505050565b600073ffffffffffffffffffffffffffffffffffffffff168273ffffffffffffffffffffffffffffffffffffffff160361040b57600080fd5b3373ffffffffffffffffffffffffffffffffffffffff1661042b826108e9565b73ffffffffffffffffffffffffffffffffffffffff161461044b57600080fd5b816004600083815260200190815260200160002060006101000a81548173ffffffffffffffffffffffffffffffffffffffff021916908373ffffffffffffffffffffffffffffffffffffffff160217905550808273ffffffffffffffffffffffffffffffffffffffff16600073ffffffffffffffffffffffffffffffffffffffff167fbeabacc8ffedac16e9a60acdb2ca743d80c2ebb44977a93fa8e483c74d2b35a860405160405180910390a45050565b6000600880549050905090565b600a818051602081018201805184825260208301602085012081835280955050505050506000915054906101000a900460ff1681565b60008273ffffffffffffffffffffffffffffffffffffffff16610562836108e9565b73ffffffffffffffffffffffffffffffffffffffff161461058257600080fd5b600660008473ffffffffffffffffffffffffffffffffffffffff1673ffffffffffffffffffffffffffffffffffffffff16815260200190815260200160002082815481106105d3576105d261150b565b5b9060005260206000200154905092915050565b60006105f06104fd565b82106105fb57600080fd5b6008828154811061060f5761060e61150b565b5b90600052602060002001549050919050565b60008073ffffffffffffffffffffffffffffffffffffffff168273ffffffffffffffffffffffffffffffffffffffff160361065b57600080fd5b600260008373ffffffffffffffffffffffffffffffffffffffff1673ffffffffffffffffffffffffffffffffffffffff168152602001908152602001600020549050919050565b60026020528060005260406000206000915090505481565b6060600180546106c9906114da565b80601f01602080910402602001604051908101604052809291908181526020018280546106f5906114da565b80156107425780601f1061071757610100808354040283529160200191610742565b820191906000526020600020905b81548152906001019060200180831161072557829003601f168201915b5050505050905090565b6008818154811061075c57600080fd5b906000526020600020016000915090505481565b6009818154811061078057600080fd5b90600052602060002001600091509050805461079b906114da565b80601f01602080910402602001604051908101604052809291908181526020018280546107c7906114da565b80156108145780601f106107e957610100808354040283529160200191610814565b820191906000526020600020905b8154815290600101906020018083116107f757829003601f168201915b505050505081565b600a8160405161082c9190611576565b908152602001604051809103902060009054906101000a900460ff161561085257600080fd5b60098190806001815401808255809150506001900390600052602060002001600090919091909150908051906020019061088d929190610fb0565b50600060016009805490506108a291906115bc565b90506108ae3382610cbb565b6001600a836040516108c09190611576565b908152602001604051809103902060006101000a81548160ff0219169083151502179055505050565b6000806003600084815260200190815260200160002060009054906101000a900473ffffffffffffffffffffffffffffffffffffffff169050600073ffffffffffffffffffffffffffffffffffffffff168173ffffffffffffffffffffffffffffffffffffffff1603610991576040517f08c379a000000000000000000000000000000000000000000000000000000000815260040161098890611662565b60405180910390fd5b80915050919050565b6000806109a6836108e9565b90503373ffffffffffffffffffffffffffffffffffffffff168173ffffffffffffffffffffffffffffffffffffffff16146109e057600080fd5b8373ffffffffffffffffffffffffffffffffffffffff168173ffffffffffffffffffffffffffffffffffffffff161491505092915050565b8273ffffffffffffffffffffffffffffffffffffffff16610a38826108e9565b73ffffffffffffffffffffffffffffffffffffffff1614610a5857600080fd5b8173ffffffffffffffffffffffffffffffffffffffff16610a78826108e9565b73ffffffffffffffffffffffffffffffffffffffff1603610a9857600080fd5b3373ffffffffffffffffffffffffffffffffffffffff168373ffffffffffffffffffffffffffffffffffffffff1614610ad057600080fd5b600073ffffffffffffffffffffffffffffffffffffffff168273ffffffffffffffffffffffffffffffffffffffff1603610b0957600080fd5b6001600260008473ffffffffffffffffffffffffffffffffffffffff1673ffffffffffffffffffffffffffffffffffffffff1681526020019081526020016000206000828254610b599190611682565b925050819055506001600260008573ffffffffffffffffffffffffffffffffffffffff1673ffffffffffffffffffffffffffffffffffffffff1681526020019081526020016000206000828254610bb091906115bc565b92505081905550816003600083815260200190815260200160002060006101000a81548173ffffffffffffffffffffffffffffffffffffffff021916908373ffffffffffffffffffffffffffffffffffffffff160217905550816004600083815260200190815260200160002060006101000a81548173ffffffffffffffffffffffffffffffffffffffff021916908373ffffffffffffffffffffffffffffffffffffffff160217905550808273ffffffffffffffffffffffffffffffffffffffff168473ffffffffffffffffffffffffffffffffffffffff167fbeabacc8ffedac16e9a60acdb2ca743d80c2ebb44977a93fa8e483c74d2b35a860405160405180910390a4505050565b610cc58282610cdc565b610cce81610e31565b610cd88282610e7a565b5050565b610ce581610f3e565b15610cef57600080fd5b600073ffffffffffffffffffffffffffffffffffffffff168273ffffffffffffffffffffffffffffffffffffffff1603610d2857600080fd5b6001600260008473ffffffffffffffffffffffffffffffffffffffff1673ffffffffffffffffffffffffffffffffffffffff1681526020019081526020016000206000828254610d789190611682565b92505081905550816003600083815260200190815260200160002060006101000a81548173ffffffffffffffffffffffffffffffffffffffff021916908373ffffffffffffffffffffffffffffffffffffffff160217905550808273ffffffffffffffffffffffffffffffffffffffff16600073ffffffffffffffffffffffffffffffffffffffff167fbeabacc8ffedac16e9a60acdb2ca743d80c2ebb44977a93fa8e483c74d2b35a860405160405180910390a45050565b6008805490506005600083815260200190815260200160002081905550600881908060018154018082558091505060019003906000526020600020016000909190919091505550565b600660008373ffffffffffffffffffffffffffffffffffffffff1673ffffffffffffffffffffffffffffffffffffffff168152602001908152602001600020805490506007600083815260200190815260200160002081905550600660008373ffffffffffffffffffffffffffffffffffffffff1673ffffffffffffffffffffffffffffffffffffffff1681526020019081526020016000208190806001815401808255809150506001900390600052602060002001600090919091909150555050565b6000806003600084815260200190815260200160002060009054906101000a900473ffffffffffffffffffffffffffffffffffffffff169050600073ffffffffffffffffffffffffffffffffffffffff168173ffffffffffffffffffffffffffffffffffffffff161415915050919050565b828054610fbc906114da565b90600052602060002090601f016020900481019282610fde5760008555611025565b82601f10610ff757805160ff1916838001178555611025565b82800160010185558215611025579182015b82811115611024578251825591602001919060010190611009565b5b5090506110329190611036565b5090565b5b8082111561104f576000816000905550600101611037565b5090565b600081519050919050565b600082825260208201905092915050565b60005b8381101561108d578082015181840152602081019050611072565b8381111561109c576000848401525b50505050565b6000601f19601f8301169050919050565b60006110be82611053565b6110c8818561105e565b93506110d881856020860161106f565b6110e1816110a2565b840191505092915050565b6000602082019050818103600083015261110681846110b3565b905092915050565b6000604051905090565b600080fd5b600080fd5b600073ffffffffffffffffffffffffffffffffffffffff82169050919050565b600061114d82611122565b9050919050565b61115d81611142565b811461116857600080fd5b50565b60008135905061117a81611154565b92915050565b6000819050919050565b61119381611180565b811461119e57600080fd5b50565b6000813590506111b08161118a565b92915050565b6000806000606084860312156111cf576111ce611118565b5b60006111dd8682870161116b565b93505060206111ee8682870161116b565b92505060406111ff868287016111a1565b9150509250925092565b600080604083850312156112205761121f611118565b5b600061122e8582860161116b565b925050602061123f858286016111a1565b9150509250929050565b61125281611180565b82525050565b600060208201905061126d6000830184611249565b92915050565b600080fd5b600080fd5b7f4e487b7100000000000000000000000000000000000000000000000000000000600052604160045260246000fd5b6112b5826110a2565b810181811067ffffffffffffffff821117156112d4576112d361127d565b5b80604052505050565b60006112e761110e565b90506112f382826112ac565b919050565b600067ffffffffffffffff8211156113135761131261127d565b5b61131c826110a2565b9050602081019050919050565b82818337600083830152505050565b600061134b611346846112f8565b6112dd565b90508281526020810184848401111561136757611366611278565b5b611372848285611329565b509392505050565b600082601f83011261138f5761138e611273565b5b813561139f848260208601611338565b91505092915050565b6000602082840312156113be576113bd611118565b5b600082013567ffffffffffffffff8111156113dc576113db61111d565b5b6113e88482850161137a565b91505092915050565b60008115159050919050565b611406816113f1565b82525050565b600060208201905061142160008301846113fd565b92915050565b60006020828403121561143d5761143c611118565b5b600061144b848285016111a1565b91505092915050565b60006020828403121561146a57611469611118565b5b60006114788482850161116b565b91505092915050565b61148a81611142565b82525050565b60006020820190506114a56000830184611481565b92915050565b7f4e487b7100000000000000000000000000000000000000000000000000000000600052602260045260246000fd5b600060028204905060018216806114f257607f821691505b602082108103611505576115046114ab565b5b50919050565b7f4e487b7100000000000000000000000000000000000000000000000000000000600052603260045260246000fd5b600081905092915050565b600061155082611053565b61155a818561153a565b935061156a81856020860161106f565b80840191505092915050565b60006115828284611545565b915081905092915050565b7f4e487b7100000000000000000000000000000000000000000000000000000000600052601160045260246000fd5b60006115c782611180565b91506115d283611180565b9250828210156115e5576115e461158d565b5b828203905092915050565b7f6f776e657220717565727920666f72206e6f6e2d6578697374656e7420746f6b60008201527f656e000000000000000000000000000000000000000000000000000000000000602082015250565b600061164c60228361105e565b9150611657826115f0565b604082019050919050565b6000602082019050818103600083015261167b8161163f565b9050919050565b600061168d82611180565b915061169883611180565b9250827fffffffffffffffffffffffffffffffffffffffffffffffffffffffffffffffff038211156116cd576116cc61158d565b5b82820190509291505056fea264697066735822122003c3088a7ae4723acd981fad0fd285192205270e1ced653735e450eb3aacaf9f64736f6c634300080d0033",
  "immutableReferences": {},
  "source": "// SPDX-License-Identifier: MIT\r\npragma solidity ^0.8.0;\r\n\r\nimport \"./ERC721Connector.sol\";\r\n// import \"./ERC721.sol\";\r\n\r\ncontract Kryptobird is ERC721Connector{\r\n\r\n    constructor() ERC721Connector(\"Kryptobird\",\"KBIRDZ\") {\r\n        \r\n    }\r\n\r\n\r\n   string [] public kryptobirds;\r\n\r\n   mapping(string=>bool) public isAdded;\r\n\r\n   function mint(string memory name) public {\r\n       require(!isAdded[name]);\r\n       kryptobirds.push(name);\r\n       uint256 tokenId = kryptobirds.length - 1;\r\n       _mint(msg.sender,tokenId);\r\n       isAdded[name] = true;\r\n   }\r\n\r\n\r\n\r\n\r\n\r\n\r\n\r\n\r\n\r\n\r\n\r\n\r\n\r\n\r\n\r\n\r\n\r\n\r\n\r\n\r\n\r\n/*\r\n    mapping(string=>bool) public _kryptoBirdzExists;\r\n\r\n\r\n    string[] public Kryptobirds;\r\n\r\n    function mint(string memory _kryptoBird) public  {\r\n        require(!_kryptoBirdzExists[_kryptoBird]);\r\n        Kryptobirds.push(_kryptoBird);\r\n        uint256 _id = Kryptobirds.length -1;\r\n        _mint(msg.sender,_id);\r\n        _kryptoBirdzExists[_kryptoBird] = true;\r\n    }\r\n\r\n*/\r\n\r\n}",
  "sourcePath": "C:\\Users\\suvodeep\\nft\\src\\contracts\\KryptoBirdz.sol",
  "compiler": {
    "name": "solc",
    "version": "0.8.13+commit.abaa5c0e.Emscripten.clang"
  },
  "schemaVersion": "3.4.4",
  "updatedAt": "2022-03-19T17:19:38.920Z",
  "networkType": "ethereum",
  "devdoc": {
    "kind": "dev",
    "methods": {},
    "version": 1
  },
  "userdoc": {
    "kind": "user",
    "methods": {},
    "version": 1
  }
}